{
  "contractName": "ImageStore",
  "abi": [
    {
      "anonymous": false,
      "inputs": [
        {
          "indexed": false,
          "internalType": "string",
          "name": "imageHash",
          "type": "string"
        },
        {
          "indexed": false,
          "internalType": "string",
          "name": "studentId",
          "type": "string"
        }
      ],
      "name": "ImageUploaded",
      "type": "event"
    },
    {
      "inputs": [
        {
          "internalType": "string",
          "name": "_imageHash",
          "type": "string"
        },
        {
          "internalType": "string",
          "name": "_studentId",
          "type": "string"
        }
      ],
      "name": "uploadImage",
      "outputs": [],
      "stateMutability": "nonpayable",
      "type": "function"
    },
    {
      "inputs": [
        {
          "internalType": "string",
          "name": "_imageHash",
          "type": "string"
        }
      ],
      "name": "getImageData",
      "outputs": [
        {
          "internalType": "string",
          "name": "",
          "type": "string"
        },
        {
          "internalType": "string",
          "name": "",
          "type": "string"
        }
      ],
      "stateMutability": "view",
      "type": "function",
      "constant": true
    },
    {
      "inputs": [
        {
          "internalType": "string",
          "name": "_studentId",
          "type": "string"
        }
      ],
      "name": "hasUploaded",
      "outputs": [
        {
          "internalType": "bool",
          "name": "",
          "type": "bool"
        }
      ],
      "stateMutability": "view",
      "type": "function",
      "constant": true
    }
  ],
  "bytecode": "0x608060405234801561001057600080fd5b5061087b806100206000396000f3fe608060405234801561001057600080fd5b50600436106100415760003560e01c80637233151f14610046578063a91b831414610076578063c5927c6f14610092575b600080fd5b610060600480360381019061005b91906104b9565b6100c3565b60405161006d919061065c565b60405180910390f35b610090600480360381019061008b91906104fa565b6100f8565b005b6100ac60048036038101906100a791906104b9565b610247565b6040516100ba929190610677565b60405180910390f35b60006001826040516100d59190610645565b908152602001604051809103902060009054906101000a900460ff169050919050565b6001816040516101089190610645565b908152602001604051809103902060009054906101000a900460ff1615610164576040517f08c379a000000000000000000000000000000000000000000000000000000000815260040161015b906106ae565b60405180910390fd5b6040518060400160405280838152602001828152506000836040516101899190610645565b908152602001604051809103902060008201518160000190805190602001906101b39291906103ae565b5060208201518160010190805190602001906101d09291906103ae565b50905050600180826040516101e59190610645565b908152602001604051809103902060006101000a81548160ff0219169083151502179055507f4100268192942655e73272ce8ac6ef7c422412f72b5483dbc5edacab133ae481828260405161023b929190610677565b60405180910390a15050565b6060806000808460405161025b9190610645565b9081526020016040518091039020604051806040016040529081600082018054610284906107a4565b80601f01602080910402602001604051908101604052809291908181526020018280546102b0906107a4565b80156102fd5780601f106102d2576101008083540402835291602001916102fd565b820191906000526020600020905b8154815290600101906020018083116102e057829003601f168201915b50505050508152602001600182018054610316906107a4565b80601f0160208091040260200160405190810160405280929190818152602001828054610342906107a4565b801561038f5780601f106103645761010080835404028352916020019161038f565b820191906000526020600020905b81548152906001019060200180831161037257829003601f168201915b5050505050815250509050806000015181602001519250925050915091565b8280546103ba906107a4565b90600052602060002090601f0160209004810192826103dc5760008555610423565b82601f106103f557805160ff1916838001178555610423565b82800160010185558215610423579182015b82811115610422578251825591602001919060010190610407565b5b5090506104309190610434565b5090565b5b8082111561044d576000816000905550600101610435565b5090565b600061046461045f846106ff565b6106ce565b90508281526020810184848401111561047c57600080fd5b610487848285610762565b509392505050565b600082601f8301126104a057600080fd5b81356104b0848260208601610451565b91505092915050565b6000602082840312156104cb57600080fd5b600082013567ffffffffffffffff8111156104e557600080fd5b6104f18482850161048f565b91505092915050565b6000806040838503121561050d57600080fd5b600083013567ffffffffffffffff81111561052757600080fd5b6105338582860161048f565b925050602083013567ffffffffffffffff81111561055057600080fd5b61055c8582860161048f565b9150509250929050565b61056f81610756565b82525050565b60006105808261072f565b61058a818561073a565b935061059a818560208601610771565b6105a381610834565b840191505092915050565b60006105b98261072f565b6105c3818561074b565b93506105d3818560208601610771565b80840191505092915050565b60006105ec60258361073a565b91507f53747564656e742068617320616c72656164792075706c6f6164656420616e2060008301527f696d6167650000000000000000000000000000000000000000000000000000006020830152604082019050919050565b600061065182846105ae565b915081905092915050565b60006020820190506106716000830184610566565b92915050565b600060408201905081810360008301526106918185610575565b905081810360208301526106a58184610575565b90509392505050565b600060208201905081810360008301526106c7816105df565b9050919050565b6000604051905081810181811067ffffffffffffffff821117156106f5576106f4610805565b5b8060405250919050565b600067ffffffffffffffff82111561071a57610719610805565b5b601f19601f8301169050602081019050919050565b600081519050919050565b600082825260208201905092915050565b600081905092915050565b60008115159050919050565b82818337600083830152505050565b60005b8381101561078f578082015181840152602081019050610774565b8381111561079e576000848401525b50505050565b600060028204905060018216806107bc57607f821691505b602082108114156107d0576107cf6107d6565b5b50919050565b7f4e487b7100000000000000000000000000000000000000000000000000000000600052602260045260246000fd5b7f4e487b7100000000000000000000000000000000000000000000000000000000600052604160045260246000fd5b6000601f19601f830116905091905056fea2646970667358221220cd72324f8d91825077698b1386f3f2fb22e8d463f10f94e0e86fc1698f4bed0364736f6c63430008000033",
  "immutableReferences": {},
  "source": "// SPDX-License-Identifier: MIT\r\npragma solidity ^0.8.0;\r\n\r\ncontract ImageStore {\r\n    struct ImageData {\r\n        string imageHash;\r\n        string studentId;\r\n    }\r\n\r\n    mapping(string => ImageData) private imageRecords;\r\n    mapping(string => bool) private studentUploaded;\r\n\r\n    event ImageUploaded(string imageHash, string studentId);\r\n\r\n    function uploadImage(string memory _imageHash, string memory _studentId) public {\r\n        require(!studentUploaded[_studentId], \"Student has already uploaded an image\");\r\n\r\n        imageRecords[_imageHash] = ImageData({\r\n            imageHash: _imageHash,\r\n            studentId: _studentId\r\n        });\r\n\r\n        studentUploaded[_studentId] = true;\r\n\r\n        emit ImageUploaded(_imageHash, _studentId);\r\n    }\r\n\r\n    function getImageData(string memory _imageHash) public view returns (string memory, string memory) {\r\n        ImageData memory data = imageRecords[_imageHash];\r\n        return (data.imageHash, data.studentId);\r\n    }\r\n\r\n    function hasUploaded(string memory _studentId) public view returns (bool) {\r\n        return studentUploaded[_studentId];\r\n    }\r\n}\r\n",
  "sourcePath": "D:\\blockchain\\blockchainClientServer\\withfrontend\\NewBlockchain\\ImageChain\\contracts\\ImageStore.sol",
  "compiler": {
    "name": "solc",
    "version": "0.8.0+commit.c7dfd78e.Emscripten.clang"
  },
  "schemaVersion": "3.4.16",
  "updatedAt": "2024-05-29T09:19:25.996Z",
  "networkType": "ethereum",
  "devdoc": {
    "kind": "dev",
    "methods": {},
    "version": 1
  },
  "userdoc": {
    "kind": "user",
    "methods": {},
    "version": 1
  }
}